{
  "contractName": "Cinema",
  "abi": [
    {
      "inputs": [],
      "name": "numberOfFunders",
      "outputs": [
        {
          "internalType": "uint256",
          "name": "",
          "type": "uint256"
        }
      ],
      "stateMutability": "view",
      "type": "function"
    },
    {
      "stateMutability": "payable",
      "type": "receive"
    },
    {
      "inputs": [],
      "name": "addFunds",
      "outputs": [],
      "stateMutability": "payable",
      "type": "function"
    },
    {
      "inputs": [
        {
          "internalType": "uint256",
          "name": "index",
          "type": "uint256"
        }
      ],
      "name": "getFundersIndex",
      "outputs": [
        {
          "internalType": "address",
          "name": "",
          "type": "address"
        }
      ],
      "stateMutability": "view",
      "type": "function"
    },
    {
      "inputs": [],
      "name": "getAllFunders",
      "outputs": [
        {
          "internalType": "address[]",
          "name": "",
          "type": "address[]"
        }
      ],
      "stateMutability": "view",
      "type": "function"
    },
    {
      "inputs": [
        {
          "internalType": "uint256",
          "name": "withdrawAmount",
          "type": "uint256"
        }
      ],
      "name": "withdraw",
      "outputs": [],
      "stateMutability": "nonpayable",
      "type": "function"
    }
  ],
  "bytecode": "0x608060405234801561001057600080fd5b50610768806100206000396000f3fe60806040526004361061004e5760003560e01c80632e1472de1461005a5780632e1a7d4d146100975780636fbbb55d146100c0578063a26759cb146100eb578063dc79a7fc146100f557610055565b3661005557005b600080fd5b34801561006657600080fd5b50610081600480360381019061007c919061044d565b610120565b60405161008e91906104bb565b60405180910390f35b3480156100a357600080fd5b506100be60048036038101906100b9919061044d565b61015d565b005b3480156100cc57600080fd5b506100d56101f4565b6040516100e29190610594565b60405180910390f35b6100f36102ed565b005b34801561010157600080fd5b5061010a61040c565b60405161011791906105c5565b60405180910390f35b60006001600083815260200190815260200160002060009054906101000a900473ffffffffffffffffffffffffffffffffffffffff169050919050565b80670de0b6b3a76400008111156101a9576040517f08c379a00000000000000000000000000000000000000000000000000000000081526004016101a09061063d565b60405180910390fd5b3373ffffffffffffffffffffffffffffffffffffffff166108fc839081150290604051600060405180830381858888f193505050501580156101ef573d6000803e3d6000fd5b505050565b60606000805467ffffffffffffffff8111156102135761021261065d565b5b6040519080825280602002602001820160405280156102415781602001602082028036833780820191505090505b50905060005b6000548110156102e5576001600082815260200190815260200160002060009054906101000a900473ffffffffffffffffffffffffffffffffffffffff168282815181106102985761029761068c565b5b602002602001019073ffffffffffffffffffffffffffffffffffffffff16908173ffffffffffffffffffffffffffffffffffffffff168152505080806102dd906106ea565b915050610247565b508091505090565b6000339050600260008273ffffffffffffffffffffffffffffffffffffffff1673ffffffffffffffffffffffffffffffffffffffff16815260200190815260200160002060009054906101000a900460ff16610409576000806000815480929190610357906106ea565b9190505590506001600260008473ffffffffffffffffffffffffffffffffffffffff1673ffffffffffffffffffffffffffffffffffffffff16815260200190815260200160002060006101000a81548160ff021916908315150217905550816001600083815260200190815260200160002060006101000a81548173ffffffffffffffffffffffffffffffffffffffff021916908373ffffffffffffffffffffffffffffffffffffffff160217905550505b50565b60005481565b600080fd5b6000819050919050565b61042a81610417565b811461043557600080fd5b50565b60008135905061044781610421565b92915050565b60006020828403121561046357610462610412565b5b600061047184828501610438565b91505092915050565b600073ffffffffffffffffffffffffffffffffffffffff82169050919050565b60006104a58261047a565b9050919050565b6104b58161049a565b82525050565b60006020820190506104d060008301846104ac565b92915050565b600081519050919050565b600082825260208201905092915050565b6000819050602082019050919050565b61050b8161049a565b82525050565b600061051d8383610502565b60208301905092915050565b6000602082019050919050565b6000610541826104d6565b61054b81856104e1565b9350610556836104f2565b8060005b8381101561058757815161056e8882610511565b975061057983610529565b92505060018101905061055a565b5085935050505092915050565b600060208201905081810360008301526105ae8184610536565b905092915050565b6105bf81610417565b82525050565b60006020820190506105da60008301846105b6565b92915050565b600082825260208201905092915050565b7f43616e6e6f74207769746864726177206d6f7265207468616e20314554480000600082015250565b6000610627601e836105e0565b9150610632826105f1565b602082019050919050565b600060208201905081810360008301526106568161061a565b9050919050565b7f4e487b7100000000000000000000000000000000000000000000000000000000600052604160045260246000fd5b7f4e487b7100000000000000000000000000000000000000000000000000000000600052603260045260246000fd5b7f4e487b7100000000000000000000000000000000000000000000000000000000600052601160045260246000fd5b60006106f582610417565b91507fffffffffffffffffffffffffffffffffffffffffffffffffffffffffffffffff8203610727576107266106bb565b5b60018201905091905056fea2646970667358221220298a3925bd5ec343bcf9227eac1ecd30548426eae91a0a4976507bf32e1b33a064736f6c634300080f0033",
  "immutableReferences": {},
  "source": "// SPDX-License-Identifier: MIT\r\npragma solidity >=0.6.0 <0.9.0;\r\n\r\ncontract Cinema {\r\n    uint public numberOfFunders;\r\n    mapping (uint256 => address) lutFunders;\r\n    mapping (address => bool) funders;\r\n\r\n    receive() external payable{}\r\n\r\n    function addFunds() external payable{\r\n        address funder = msg.sender;\r\n        if(!funders[funder]){\r\n            uint256 index = numberOfFunders++;\r\n            funders[funder] = true;\r\n            lutFunders[index] = funder;\r\n        }\r\n    }\r\n\r\n    function getFundersIndex(uint256 index) external view returns(address){\r\n        return lutFunders[index];\r\n    }\r\n\r\n    function getAllFunders()external view returns(address[] memory){\r\n        address[] memory _funders = new address[](numberOfFunders);\r\n\r\n        for(uint256 i=0;i<numberOfFunders;i++){\r\n            _funders[i] = lutFunders[i];\r\n        }\r\n        return _funders;\r\n    }\r\n\r\n    function withdraw(uint256 withdrawAmount) external limitWithdraw(withdrawAmount){\r\n        payable(msg.sender).transfer(withdrawAmount);\r\n    }\r\n\r\n    modifier limitWithdraw(uint256 withdrawAmount){\r\n        require(withdrawAmount <= 1e18,\"Cannot withdraw more than 1ETH\");\r\n        _;\r\n    }\r\n}",
  "sourcePath": "C:\\Users\\Le Quoc Tuan\\OneDrive\\Documents\\Web Programming\\my-app\\client\\contracts\\cinema.sol",
  "compiler": {
    "name": "solc",
    "version": "0.8.15+commit.e14f2714.Emscripten.clang"
  },
  "schemaVersion": "3.4.7",
  "updatedAt": "2022-07-03T10:46:11.389Z",
  "devdoc": {
    "kind": "dev",
    "methods": {},
    "version": 1
  },
  "userdoc": {
    "kind": "user",
    "methods": {},
    "version": 1
  }
}